:020000040000FA
:040000000128FE2BAA
:10074A0021009D149D18AA2BAB2BA72B1C0808006F
:10075A007408F0007008F1008030F0007008F200B0
:10076A00710872050319BA2BBB2BBE2B20000C167D
:10077A00C02B20000C128C168C127236F0007008F6
:10078A00F2007208031DCA2BCB2BB52B8C148C10CC
:10079A000C128C12080064007A302100990027009C
:1007AA008C0123008C013D3021008C000C108C1030
:1007BA000C150C128C1225008C1026008C102400AB
:1007CA008C01043023008C00093021009D00103078
:1007DA009E009F018331A5238331F3007308F4003F
:1007EA008331AD2383317D306400890BF92BEF2BE4
:0607FA0001282000D02BB5
:020000040001F9
:04000E00BC3FFF3FB5
:00000001FF
