:020000040000FA
:040000000128FE2BAA
:10072C0021009D14992B9D189C2B9D2B992B9E2B56
:10073C001C08A02B08007408F0007008F100803031
:10074C00F0007008F200AA2B710872050319AF2B88
:10075C00B02BB32B20000C16B52B20000C128C16D2
:10076C0005306400890BB72B20008C127236F00018
:10077C007008F200023072020318C52BC62BAA2B8C
:10078C008C1405306400890BC82B20008C100800D9
:10079C0064007A302100990027008C0123008C0121
:1007AC003D3021008C000C108C100C150C128C168A
:1007BC0025008C1026008C1024008C0104302300A2
:1007CC008C00093021009D0010309E009F01EE2B03
:1007DC00833196238331F3007308F4008331A12312
:1007EC0083317D306400890BF82BEE2BEE2B012826
:0407FC002000CE2BE0
:020000040001F9
:04000E00BCFFFFFF35
:00000001FF
